:020000040800F2
:10000000A807002099010008FB0E0008E90C000871
:10001000F70E0008E9070008EF17000800000000CD
:10002000000000000000000000000000891100082E
:10003000D1090008000000008D0F0008151300080A
:10004000B3010008B3010008B3010008B3010008C0
:10005000B3010008B3010008B3010008B3010008B0
:10006000B3010008B3010008B3010008B3010008A0
:10007000B3010008B3010008B3010008B301000890
:10008000B3010008B3010008B3010008B301000880
:10009000B3010008B3010008B3010008B301000870
:1000A000B3010008B3010008B3010008B301000860
:1000B000B301000879130008B3010008B301000878
:1000C000B3010008B3010008B3010008B301000840
:1000D000B30100084D150008B3010008B301000882
:1000E000B3010008B3010008B301000800F002F8F2
:1000F00000F043F80AA090E8000C82448344AAF17F
:100100000107DA4501D100F038F8AFF2090EBAE87C
:100110000F0013F0010F18BFFB1A43F0010318473B
:100120007C2D00009C2D0000103A24BF78C878C1B7
:10013000FAD8520724BF30C830C144BF04680C60ED
:10014000704700000023002400250026103A28BF35
:1001500078C1FBD8520728BF30C148BF0B60704739
:100160001FB500F0ADF904000020002102F0EEF808
:10017000401C60601FBD10B510BD00F07CF9114639
:10018000FFF7EEFF01F0B8FF00F0ACF903B4FFF7A2
:10019000F2FF03BC01F02DFB0948804709480047E6
:1001A000FEE7FEE7FEE7FEE7FEE7FEE7FEE7FEE727
:1001B000FEE7FEE704480549054A064B7047000084
:1001C00019130008ED000008A8010020A80700206E
:1001D000A8030020A8030020704770B5064600F071
:1001E0008BF80468054630460A22002100F088F8A2
:1001F0002C6070BD30B505460B462A4613F8014BFE
:1002000012F8010B08B1A042F8D01CB1002802D0AE
:100210006D1CF1E7284630BD10B5431C02E010F814
:10022000011B71B18107FAD14FF0013202C88C1A5B
:100230008C4314EAC211F9D0C01A0A0603D0C01EBA
:1002400010BDC01A10BD0A0401D0801E10BD0902E5
:10025000FCD0401E10BD4FF000020429C0F01280F7
:1002600010F0030C00F08680CCF1040CBCF1020FFE
:1002700018BF00F8012BA8BF20F8022BA1EB0C013E
:1002800000F078B85FEAC17C24BF00F8012B00F8C9
:10029000012B48BF00F8012B704710B5044610F041
:1002A000030F08BF11F0030F40F015804FF0013E1F
:1002B000121FC0F20E8051F8043BA3EB0E0C2CEA87
:1002C000030C1CEACE1C08BF40F8043BF0D0A1F19F
:1002D000040102F10402521E08DB11F8013B002B5D
:1002E00000F8013BF7D11146FFF7B5FF204610BDDE
:1002F00070477047704770470048704748010020BA
:100300002DE9F04791460F4680460446002614F832
:10031000015B2DB100F058F80068405DC007F6D1D0
:100320002B2D02D02D2D18D0641E4A46394620466A
:1003300000F052F827B13968A14201D1C7F8008016
:100340004FF0020471050BD54042002803DDFFF792
:10035000D3FF0460A007BDE8F08746F48066E4E7B9
:100360000028F8DAFFF7C8FF04606FF00040F2E7FA
:100370004FF0000200B5134694469646203922BF3E
:10038000A0E80C50A0E80C50B1F12001BFF4F7AF89
:10039000090728BFA0E80C5048BF0CC05DF804EB6B
:1003A000890028BF40F8042B08BF704748BF20F8D9
:1003B000022B11F0804F18BF00F8012B704700008E
:1003C000004870474801002010B500F079F8001D82
:1003D00010BD00BF791F00002DE9F05F8246154671
:1003E0008B4600270AF10104B9460078302801D075
:1003F0009DB113E014F8010B0127782803D0582889
:1004000001D045B10AE00DB1102D07D1002714F835
:10041000010B102502E0082500E00A250026B04661
:100420000EE005FB080005FB06F101271FFA80F826
:1004300001EB1046B6F5803F00D3B94614F8010B26
:10044000294600F041F80028EBDABBF1000F05D097
:100450000FB1641E00E05446CBF80040B9F1000F24
:1004600006D0FFF749FF02210160C81EBDE8F09FDA
:1004700048EA0640FAE77546FFF7A2FFAE460500D8
:100480006946534620F00700854618B020B5FFF7AF
:1004900091FEBDE820404FF000064FF000074FF0FE
:1004A00000084FF0000B21F00701AC46ACE8C00992
:1004B000ACE8C009ACE8C009ACE8C0098D4670479B
:1004C00000487047680100203A2800D2303820F0F8
:1004D0002002412A01D3A2F13700884201D34FF014
:1004E000FF3070470446AFF300802046FFF74EFE12
:1004F0004FF0013C50F8042B51F8043B9A4221D1B3
:10050000A2EB0C03934313EACC1317D150F8042B3E
:1005100051F8043B9A4215D1A2EB0C03934313EA22
:10052000CC130BD150F8042B51F8043B9A4209D15B
:10053000A2EB0C03934313EACC13DBD04FF0000083
:10054000704700BFD01A01BAB1FA81F101F0180169
:1005500022FA01F0CB40C1F12001DBB2C0B2C01AD7
:100560002CFA01F3D11A914311EAC311E6D1704775
:1005700021B1826842F00102826003E0826822F0C9
:10058000010282607047000010B5044612488442A0
:1005900008D10121401500F037FD0021601500F061
:1005A00033FD17E00D48844208D10121001500F009
:1005B0002BFD0021201500F027FD0BE008488442A8
:1005C00008D10121C80300F01FFD00214FF40040B5
:1005D00000F01AFD10BD0000002401400028014079
:1005E000003C0140014600208A6802F004020AB182
:1005F000012000E0002070470146C86C80B27047BF
:100600000246002013680B400BB1012000E00020DF
:100610007047014600208A6802F008020AB10120F2
:1006200000E000207047000030B5024600200023A3
:1006300050680F4C20400D790C6844EA0524204393
:10064000506090680B4C2040D1E902542C434D7906
:1006500044EA450420439060D06A20F470000C7C8A
:10066000641EE4B2234340EA0350D06230BD000070
:10067000FFFEF0FFFDF7F1FFF0B504460D46002048
:100680000021092D11DDE068A5F10A0606EB4607F9
:10069000072606FA07F18843A5F10A0606EB460687
:1006A00003FA06F10843E0600CE0206905EB45071A
:1006B000072606FA07F1884305EB450603FA06F11B
:1006C00008432061072A0FDA606B561E06EB860787
:1006D0001F2606FA07F18843561E06EB860605FA22
:1006E00006F10843606322E00D2A0FDA206BD61F63
:1006F00006EB86071F2606FA07F18843D61F06EB8E
:10070000860605FA06F10843206310E0E06AA2F1CC
:100710000D0606EB86071F2606FA07F18843A2F1AD
:100720000D0606EB860605FA06F10843E062F0BD09
:10073000816841F008018160704721B1826842F40C
:10074000A002826003E0826822F4A0028260704707
:10075000816841F0040181607047000000B587B0F6
:1007600001214FF4027000F03FFC4FF4004000F014
:100770000FFC0220ADF8040000208DF8070001A94D
:10078000174800F026F91748FFF7FEFE00200290F8
:100790008DF80C008DF80D004FF4602004900020BF
:1007A000059001208DF8180002A90E48FFF73CFFC4
:1007B00001210C48FFF7DCFE0A48FFF7B9FF00BF34
:1007C0000848FFF726FF0028FAD10648FFF7C0FFC8
:1007D00000BF0448FFF706FF0028FAD107B000BDAC
:1007E000000C01400024014000BFFEE708B50121D4
:1007F000082000F0F9FB2020ADF8000010208DF853
:10080000030003208DF802006946044800F0E1F877
:100810002021024800F077F908BD0000000C0140DB
:1008200010B500242548006820F4700023490860B2
:100830000846006840F44010086020211F4800F07E
:1008400060F940F2EE2001F041F820211B4800F051
:100850005AF90F2001F03AF81848006820F47000A7
:10086000164908600846006840F40000086002E08D
:10087000012001F02BF82021104800F035F920B1BB
:100880002046611CCCB2C828F2DBC82C01DB012059
:1008900010BD002402E0012001F018F820210748D3
:1008A00000F022F920B92046611CCCB2F028F2DB1E
:1008B000F02C01DB0120EBE70020E9E7000C014010
:1008C00070B50024002530E064101A48006820F458
:1008D0007000184908600846006840F4401008603D
:1008E0002021144800F00DF9022000F0EFFF202134
:1008F000104800F008F90F48006820F470000D4916
:1009000008600846006840F4000008600C2000F011
:10091000DDFF2021074800F0E7F808B144F080042B
:100920003C2000F0D3FF681CC5B2082DCCDB20466C
:1009300070BD0000000C014070B504461948006805
:1009400020F47000174908600846006840F4401021
:100950000860012522E004F00106641076B1202130
:10096000104800F0CEF8022000F0B0FF20210D4822
:1009700000F0C9F83C2000F0A9FF0DE02021094853
:1009800000F0BFF83C2000F0A1FF2021054800F056
:10099000BAF8022000F09AFF681CC5B2082DDADD13
:1009A00070BD0000000C014010B50246002100207F
:1009B00000BF0AE042FA01F303F00103C1F10704AA
:1009C000A3400344D8B24B1CD9B20829F2DB10BDB6
:1009D00070472DE9F0410246002500260020002343
:1009E0000024002791F803C00CF00F0591F803C014
:1009F0000CF0100CBCF1000F03D091F802C04CEACF
:100A0000050591F800C0BCF1000F31D0146800203A
:100A10002BE04FF0010C0CFA00F3B1F800C00CEA27
:100A200003069E4220D183004FF00F0C0CFA03F70F
:100A3000BC4305FA03FC4CEA040491F803C0BCF182
:100A4000280F06D14FF0010C0CFA00FCC2F814C0BC
:100A50000AE091F803C0BCF1480F05D14FF0010C3A
:100A60000CFA00FCC2F810C0401C0828D1D3146056
:100A7000B1F800C0BCF1FF0F34DD546800202EE057
:100A800000F1080C4FF0010808FA0CF3B1F800C0AF
:100A90000CEA03069E4221D183004FF00F0C0CFAA2
:100AA00003F7BC4305FA03FC4CEA040491F803C0C5
:100AB000BCF1280F05D100F1080C08FA0CF8C2F8B7
:100AC000148091F803C0BCF1480F07D100F1080C65
:100AD0004FF0010808FA0CF8C2F81080401C0828F2
:100AE000CED35460BDE8F0810246002093680B40ED
:100AF0000BB1012000E0002070470146C86880B2B9
:100B000070474161704701617047C16070470000E4
:100B100010B504460723012221460948FFF7ACFD22
:100B200001210748FFF709FE00BF02210448FFF733
:100B300067FD0028F9D00248FFF75EFD10BD0000F8
:100B4000002401402DE9F04107460C46002500260F
:100B500008E03846FFF7DCFF0544052000F06EFE94
:100B6000701CC6B2A642F4DBB5FBF4F080B2BDE85F
:100B7000F08100002DE9FC474FF00008002753A149
:100B80005448FFF737FB00283FD0524FBF1C384670
:100B9000FFF742FBC5B20A2D30DC00240AE0385DC5
:100BA000202804D008F1010000F0FF0800E003E075
:100BB000601CC4B2AC42F2DB00BF00200090019088
:100BC000424639466846FFF768FB6846FFF724FB54
:100BD000C6B220200DF806000021701C0DF8001090
:100BE0006846FFF7FAFA3C4908600846006841F297
:100BF0008831884202D3084637490860C821354801
:100C0000FFF729FB00203549086033480068344964
:100C10000968884217D333480078A0B12022012107
:100C2000092000F0D9F8202201210A2000F0D4F890
:100C3000202201210B2000F0CFF8202201210C20DE
:100C400000F0CAF83FE0244800684FF47A71B0FB26
:100C5000F1F0303000F0FF094A460121092000F090
:100C6000BBF81D4800684FF47A71B0FBF1F201FB4C
:100C700012006421B0FBF1F0303000F0FF094A4669
:100C800001210A2000F0A8F8134800686421B0FB95
:100C9000F1F201FB12000A21B0FBF1F000F1300982
:100CA0004A4601210B2000F097F80B4800680A2102
:100CB000B0FBF1F201FB120000F130094A460121BC
:100CC0000C2000F089F8BDE8FC87000070706D0D05
:100CD0000A00000080000020280000205C000020A6
:100CE0002C0000203300002000BFFEE708B50121E2
:100CF000182000F079F94FF47040ADF8000048205A
:100D00008DF8030069460B48FFF763FE4FF47070DF
:100D1000ADF8000010208DF8030003208DF80200CC
:100D200069460448FFF755FE4FF470710148FFF71C
:100D3000E8FE08BD000C014008B50121142000F0B8
:100D400053F9FF20ADF8000010208DF803000320B8
:100D50008DF8020069461E48FFF73BFE4FF46040E5
:100D6000ADF8000010208DF8030003208DF802007C
:100D700069461848FFF72DFE382000F041F805209D
:100D800000F05CFD382000F03BF8052000F056FD37
:100D9000382000F035F8052000F050FD082000F064
:100DA0002FF8052000F04AFD012000F029F8052069
:100DB00000F044FD062000F023F8052000F03EFD81
:100DC0000C2000F01DF8052000F038FD08BD0000E3
:100DD000000801400010014070B504460D4616465B
:100DE0002DB904F18001C8B200F00AF804E004F162
:100DF000C001C8B200F004F8304600F033F870BD0E
:100E000070B50446002014490860012000F05EFD22
:100E100000201249C1F8B801012000F057FD01205F
:100E20000D490831086000F051FD0D48FFF765FEDF
:100E300000F47F462046FFF7B7FD304485B22946CF
:100E40000748FFF762FE012000F0F8FC002003498C
:100E5000C1F8BC0170BD0000B40122420000224272
:100E60000008014070B5044601201349086000F0F5
:100E70002DFD00201149C1F8B801012000F026FD28
:100E800001200D490831086000F020FD0C48FFF7F3
:100E900034FE00F47F462046FFF786FD304485B2DD
:100EA00029460748FFF731FE012000F0C7FC00206B
:100EB0000249C1F8BC0170BDB401224200002242C7
:100EC0000008014070B505460E4614462EB905F1DE
:100ED0008001C8B2FFF794FF04E005F1C001C8B279
:100EE000FFF78EFF03E02078FFF7BCFF641C20783B
:100EF0000028F8D170BD00BFFEE7704710B54FF471
:100F0000A06000F039F810BD70B5002100230F2259
:100F1000C47804B3154C246804F4E064C4F5E064B8
:100F2000210AC1F10403CA40447804FA03F1847829
:100F30001440214309010E4C0678A155047804F0B1
:100F40001F050124AC4005786D11AD0005F1E025C9
:100F5000C5F8004109E0047804F01F050124AC4005
:100F6000044D0678761145F8264070BD0CED00E082
:100F700000E400E080E100E002490143024A116020
:100F8000704700000000FA050CED00E0704700001B
:100F900001460020034A506820F440400843506056
:100FA000704700000010024029B1064AD26902438E
:100FB000044BDA6104E0034AD2698243014BDA61EF
:100FC000704700000010024029B1064A126902432E
:100FD000044B1A6104E0034A12698243014B1A610F
:100FE000704700000010024029B1064A926902438E
:100FF000044B9A6104E0034A92698243014B9A616F
:10100000704700000010024029B1064AD26802432E
:10101000044BDA6004E0034AD2688243014BDA6091
:10102000704700000010024030B50021002200246B
:1010300000232D4D6D6805F00C0121B1042905D068
:10104000082923D105E0294D056022E0274D0560E0
:101050001FE0254D6D6805F47012234D6D6805F491
:101060008034022505EB92421CB9214D55430560A1
:101070000BE01D4D6D6805F400351DB11C4D554349
:10108000056002E0194D5543056002E0174D05600B
:1010900000BF00BF144D6D6805F0F0010909154D42
:1010A0006B5C0568DD4045600F4D6D6805F4E061DF
:1010B000090A104D6B5C4568DD4085600A4D6D681E
:1010C00005F46051C90A0B4D6B5C4568DD40C56095
:1010D000054D6D6805F44041890B074D6B5CC56893
:1010E000B5FBF3F5056130BD0010024000127A0037
:1010F00000093D0000000020100000202DE9F05FF5
:101100004FF0000AD346FFF78BFBCC20FFF714FC0F
:101110004420FFF711FCFFF783FBCC20FFF70CFC0A
:10112000BE20FFF709FCFFF7CBFB8146FFF7C8FBAA
:10113000044600BF49EA04200FFA80FA504601F045
:1011400086FB07460022054B01F0E8FB054601F04F
:1011500013F983465846BDE8F09F00000000B03FF9
:1011600030B503460C461546002207E0184600F04D
:1011700008F824F812009B1C501C82B2AA42F5DB2E
:1011800030BD014608887047704710B500F002F87E
:1011900010BD00000CB5002001900090334800689D
:1011A00040F480303149086000BF3048006800F4E6
:1011B000003000900198401C0190009818B90198E7
:1011C000B0F5A06FF1D12948006800F4003010B1EB
:1011D0000120009001E0002000900098012843D1F8
:1011E0002348006840F01000214908600846006864
:1011F00020F0030008600846006840F00200086024
:101200001A484068194948600846406848600846DE
:10121000406840F4806048600846406820F47C10D4
:1012200048600846406840F4E81048600846006896
:1012300040F08070086000BF0C48006800F000704B
:101240000028F9D00948406820F0030007494860A9
:101250000846406840F00200486000BF034840680C
:1012600000F00C000828F9D10CBD0000001002406D
:101270000020024010B50446012023490883042CB5
:1012800008D14FF0E020006940F004004FF0E02169
:10129000086107E04FF0E020006920F004004FF003
:1012A000E021086119480068174908601748001DC7
:1012B00000684860154808300068886006220C31D4
:1012C0001348FFF74DFF1048C0890F49898940EA4C
:1012D00001400D490968884214D10B48418A008AAF
:1012E00041EA00400849496888420BD10648C18A52
:1012F000808A41EA004004498968884202D100207E
:101300000149088310BD000064000020E8F7FF1FBA
:1013100000B000087047000010B51348006840F0A6
:1013200001001149086008464068104908400E490C
:101330004860084600680E4908400B4908600846A6
:10134000006820F4802008600846406820F4FE0011
:1013500048604FF41F008860FFF717FF4FF00060F0
:101360000449086010BD0000001002400000FFF8B2
:10137000FFFFF6FE08ED00E010B50121174800F070
:1013800078F848B30121154800F064F81448008843
:10139000401C1349088013480088401C11490880EC
:1013A0000F480088B0F5967F0BDB00200C490880C1
:1013B0000D48007880F001000B49087001200B49AE
:1013C000087008480088B0F5487F05DB0020054913
:1013D000088001200649087010BD0000000400408C
:1013E00036000020380000203300002032000020AA
:1013F000340000207FB505460C4601210220FFF78E
:10140000D3FDADF80850ADF804400020ADF80A0057
:10141000ADF8060001A90E4800F046F80122114679
:101420000B4800F037F81D208DF8000001208DF8E2
:10143000010002208DF8020001208DF803006846AB
:10144000FFF762FD0121024800F007F87FBD0000B0
:1014500000040040CA430282704721B1028842F072
:101460000102028004E002884FF6FE731A400280F7
:10147000704730B50246002000230024158A05EA93
:101480000103958905EA010413B10CB1012000E0C4
:10149000002030BD1AB183890B43838102E0838928
:1014A0008B43838170470000002202881D4B9842C5
:1014B0000ED01D4B98420BD0B0F1804F08D01B4B83
:1014C000984205D01A4B984202D01A4B984204D148
:1014D0004FF68F731A404B881A43174B984207D028
:1014E000164B984204D04FF6FF431A40CB881A435C
:1014F00002808B8883850B8803850A4B98420BD02A
:10150000094B984208D00E4B984205D00D4B98429B
:1015100002D00D4B984201D10B7A038601238382BE
:1015200070470000002C01400034014000040040DE
:1015300000080040000C0040001000400014004073
:1015400000400140004401400048014010B540F215
:1015500025510E4800F08AF890B10D480068C8285F
:1015600002D300200A490860084800F03BF9C1B2E4
:10157000074802680068401C054B18600548815404
:1015800040F22551014800F007F810BD0038014035
:101590005C0000208000002010B50022002340F6EF
:1015A0006A14A14200D100BF0A1201249440A3B2E0
:1015B000DC43048010BD21B1828942F40052828153
:1015C00004E082894DF6FF731A4082817047000063
:1015D00010B504462048844209D101218803FFF751
:1015E00013FD00214FF48040FFF70EFD32E01B4851
:1015F000844209D101214804FFF7E6FC00214FF4A1
:101600000030FFF7E1FC25E01548844209D10121B3
:101610008804FFF7D9FC00214FF48020FFF7D4FCA9
:1016200018E01048844209D10121C804FFF7CCFC1E
:1016300000214FF40020FFF7C7FC0BE00A4884426A
:1016400008D101210805FFF7BFFC00214FF48010ED
:10165000FFF7BAFC10BD0000003801400044004014
:1016600000480040004C00400050004070B5024669
:10167000002400230025002040F66A16B14200D164
:1016800000BFC1F3421501F01F03012606FA03F360
:10169000012D02D19689334006E0022D02D1168A2F
:1016A000334001E0968A33400C12012606FA04F416
:1016B0001688344013B10CB1012000E0002070BD49
:1016C000F0B50346002400260025002040F66A17E6
:1016D000B94200D100BF1846C1F3421401F01F0601
:1016E000012707FA06F5012C01D10C3004E0022C89
:1016F00001D1103000E014301AB107682F430760A1
:1017000002E00768AF430760F0BD00002DE9F04735
:1017100086B005460E460024A24600BFA14600271B
:10172000B08900B100BF2F462C8A4CF6FF700440F0
:10173000F08804432C82AC894EF6F3100440B08844
:1017400031890843718908430443AC81AC8A4FF660
:10175000FF400440B0890443AC8201A8FFF764FC59
:101760001F48874202D1DDF810A001E0DDF80CA08F
:10177000A88900F4004040B10AEBCA0000EB0A104F
:1017800031684900B0FBF1F807E00AEBCA0000EB52
:101790000A1031688900B0FBF1F86420B8FBF0F062
:1017A00004012009642101FB1089A88900F400408C
:1017B00040B1322000EBC900B0FBF1F000F00700AF
:1017C000044308E0322000EB09106421B0FBF1F083
:1017D00000F00F0004432C8106B0BDE8F087000044
:1017E0000038014001468888C0F30800704700BFF8
:1017F000FEE7014600BF704710B56FF00400FFF729
:1018000039FD0A4800680A49B0FBF1F0094908703F
:101810000846007800EB4001C1EBC0104FF6FF71A5
:1018200001EAC0000449088010BD00003C0000200F
:1018300000127A00500000205200002001461F4A8A
:1018400012884A434FF0E0235A6100229A611A46F7
:10185000126942F001021A6100BF4FF0E0221069E4
:10186000174A128B92B1174A1268521C154B1A6014
:101870001A4612684AF6C8739A4207D90022114BD9
:101880001A60114A1268521C0F4B1A6000F00102D4
:101890001AB100F48032002ADFD00B4A1268B2F588
:1018A000966FDAD84FF0E022126922F001024FF071
:1018B000E0231A6100229A61704700005200002064
:1018C0006400002054000020580000200146114A06
:1018D00012784A434FF0E0235A6100229A611A4677
:1018E000126942F001021A6100BF4FF0E022106954
:1018F00000F001021AB100F48032002AF5D04FF056
:10190000E022126922F001024FF0E0231A61002266
:101910009A6170475000002070B500BF0A2108206E
:10192000FFF710F9044604EB441101EB4100C11725
:1019300000EB115109131D4A11601046006863281D
:1019400001D3632001E0194800681849086008467F
:1019500000681749097888420DD81648007850B1B8
:10196000202200210320FFF737FA20220021042043
:10197000FFF732FA19E00D4800680A21B0FBF1F0D8
:101980003030C5B22A4600210320FFF725FA074868
:1019900000680A21B0FBF1F201FB120000F13005F2
:1019A0002A4600210420FFF717FA70BD140000201A
:1019B000200000203300002010B54E480078012898
:1019C00019D14D4800680A21B0FBF1F03030C4B2A3
:1019D000224601210720FFF7FFF9474800680A2146
:1019E000B0FBF1F201FB120000F1300422460121AC
:1019F0000820FFF7F1F93F480078022819D13F4845
:101A000000780A2190FBF1F03030C4B22246012167
:101A10000720FFF7E1F9394800780A2190FBF1F23D
:101A200001FB12003030C4B2224601210820FFF72A
:101A3000D3F930480078032819D1314800780A21B9
:101A400090FBF1F03030C4B2224601210720FFF7AD
:101A5000C3F92B4800780A2190FBF1F201FB120038
:101A60003030C4B2224601210820FFF7B5F92148E1
:101A7000007804283DD1234800684FF47A71B0FB08
:101A8000F1F03030C4B2224601210520FFF7A4F95D
:101A90001C4800684FF47A71B0FBF1F201FB1200B0
:101AA0006421B0FBF1F03030C4B22246012106209F
:101AB000FFF792F9134800686421B0FBF1F201FBD3
:101AC00012000A21B0FBF1F000F13004224601219E
:101AD0000720FFF781F90B4800680A21B0FBF1F2FB
:101AE00001FB120000F13004224601210820FFF71B
:101AF00073F910BD350000201C00002019000020E3
:101B0000200000202C0000202DE9F05F4FF0000A9B
:101B10000A210920FFF716F8834600F0AFFE804641
:101B20004FF06632364B00F0F9FE06460022354B88
:101B300000F008FD044600F01FFC8246504601F00C
:101B400017F904464FF066322D4B00F0E5FF01D245
:101B5000DFF8B4A0504601F00BF9044600222B4BED
:101B600000F0A0FE03D263202949086018E0504627
:101B700001F0FEF880464FF06632214B01F002F88A
:101B80000646244A244B00F0DDFC044600F032FEF9
:101B90001F49086008460068632801D9632008606F
:101BA0001B4800681D49096888420DD81C48007808
:101BB00050B1202200210920FFF70EF92022002138
:101BC0000A20FFF709F919E0114800680A21B0FB63
:101BD000F1F03030C4B2224600210920FFF7FCF8B2
:101BE0000B4800680A21B0FBF1F201FB120000F182
:101BF0003004224600210A20FFF7EEF8BDE8F09FEE
:101C000066660A400000B040333353400000F03FA6
:101C1000240000205A643BDF4F8D973F1C000020BA
:101C20003300002010B5FFF769FA044601F0CCF844
:101C300018490870084600781749097888420DDB72
:101C40001648007850B1202201210020FFF7C4F887
:101C5000202201210846FFF7BFF819E00D4800785F
:101C60000A2190FBF1F03030C4B22246012100205D
:101C7000FFF7B2F8074800780A2190FBF1F201FB68
:101C800012003030C4B2224601210846FFF7A4F802
:101C900010BD0000180000201900002033000020B3
:101CA00010B5CF480068002870D11420FFF7C6FD9A
:101CB000CB4870300068012802D13220FFF7BEFD0A
:101CC000C74800680028EFD100BFC5480068002859
:101CD000FBD00020C24974310860C2480078401C23
:101CE000C049087008460078012809D1BEA2002129
:101CF0000846FFF7E7F8C1A201210020FFF7E2F84C
:101D0000B848007802280ED1C1A200210846FFF78A
:101D1000D9F8C4A201210020FFF7D4F8DF22012165
:101D20000920FFF759F8AF480078032809D1C2A26B
:101D300000210846FFF7C6F8B0A201210020FFF7F6
:101D4000C1F8A8480078042809D1C0A2002108469B
:101D5000FFF7B8F8C2A201210020FFF7B3F8A148AD
:101D60000078052818D1C3A200210846FFF7AAF879
:101D7000C5A201210020FFF7A5F8C848007830B9B6
:101D8000C7A201210720FFF79DF805E024E0C5A2C6
:101D900001210720FFF796F8FFF70EFE9148007823
:101DA00006281FDB00208F490870BFA200210846CB
:101DB000FFF788F8C1A201210020FFF783F8DF2296
:101DC00001210220FFF708F8B448007828B9B4A22E
:101DD00000210D20FFF776F804E0B2A200210D20CB
:101DE000FFF770F87E48001D0068002866D11420B7
:101DF000FFF724FD7A4870300068012802D13220B4
:101E0000FFF71CFD7648001D0068002856D100BF72
:101E10007348001D00680028FAD07248007850B955
:101E20009E480078012806D16D4868300068C0439C
:101E3000A749C1F898016B480078012808D1A54846
:101E40000068632804D2A3480068401CA1490860C8
:101E500064480078022808D19F480078632804DA93
:101E60009D480078401C9C4908705E480078032813
:101E700008D19A480078632804DA98480078401C12
:101E8000964908705748007804280AD19448006899
:101E900041F28831884204D2914800680A30904962
:101EA000086050480078052806D100207B4908705A
:101EB00075A20121FFF706F8FFF77EFD48480830BC
:101EC0000068002864D11420FFF7B8FC4448703043
:101ED0000068012802D13220FFF7B0FC40480830EA
:101EE0000068002854D100BF3D4808300068002831
:101EF000FAD03C48007850B968480078012806D1EB
:101F000037486C300068C0437149C1F89C013548BE
:101F10000078012807D16F48006820B16D4800683B
:101F2000401E6C4908602F480078022808D16A4892
:101F30000078002804DD68480078401E6649087073
:101F400028480078032808D164480078002804DD78
:101F500062480078401E61490870224800780428D1
:101F600008D15F4800680A2804D35D4800680A3831
:101F70005B4908601B480078052807D101204749C4
:101F8000087058A201210020FEF79CFFFFF714FD06
:101F900013480C30006810BB1420FFF74FFC1048AA
:101FA00070300068012802D13220FFF747FC0C484E
:101FB0000C30006898B900BF09480C300068002850
:101FC000FAD00848007850B934480078012806D182
:101FD000034870300068C0433D49C1F8A00110BDFE
:101FE00030812142350000207365742074686520BB
:101FF0004D6F697374757265000000002020202009
:10200000202020303025202020202020000000002B
:102010002020736574207468652054656D702020DD
:1020200000000000202020202020203030204320ED
:102030002020202000000000202073657420746898
:1020400065204C6967687420000000002020207320
:1020500065742074686520434F3220200000000022
:1020600020202020203030303070706D2020202043
:1020700000000000202073657420746865206D6F77
:102080006465202000000000202020202020205A0D
:1020900044202020202020200000000031000020CB
:1020A0005A4400005344000047783A20202520532A
:1020B0003A2020252020202000000000202020435E
:1020C00020434F323A2020202070706D0000000025
:1020D000008021421C000020190000202000002068
:1020E0002C000020202020202020205344202020CD
:1020F0002020202000000000FFF77EFBFEF7FEFE00
:102100004FF4FA70FFF79AFBFEF770FBFEF726FB21
:10211000FEF7ECFDFEF710FEFEF782FB4FF41650C3
:1021200000F0B6F844A200210846FEF7CBFE47A215
:1021300001210020FEF7C6FEDF2201210220FEF76A
:102140004BFE40F2CF216320FFF754F972E0FFF716
:10215000A7FD43480078002869D14248007801284B
:1021600065D100203F490870FFF7D6FBFFF7CCFC94
:10217000FFF758FDFEF7FEFC3B480078002852D1DF
:102180003A4800683A490978884203D80120394919
:10219000086002E000203749086037480078374976
:1021A0000978884205DA3648006836490968884265
:1021B00004D301202F49091D086003E000202D49A8
:1021C000091D08603048006830490968884204D811
:1021D000012028490831086003E000202549083122
:1021E00008602248006822490978884211D92248AB
:1021F00000782249097888420BDA2348006823498D
:102200000968884205D91E4800681E490968884245
:1022100004D3012017490C31086008E0002015495B
:102220000C31086003E0002012490C3108601420D2
:10223000FFF704FB8BE7000047783A303025205346
:102240003A303025205A442000000000303020432E
:1022500020434F323A3030303070706D0000000053
:102260003500002032000020310000201400002042
:102270002000002098812142180000201900002031
:10228000280000202C000020240000201C0000203A
:1022900010B586B00446012144F20500FEF7A4FE05
:1022A0002848FFF795F94FF40070ADF814000320AB
:1022B0008DF8160018208DF8170005A92248FEF7A2
:1022C00088FB4FF48060ADF8140004208DF81700EF
:1022D00005A91D48FEF77DFB25208DF80000002094
:1022E0008DF801008DF8020001208DF8030068468A
:1022F000FEF70AFE01940020ADF80800ADF80A00D0
:10230000ADF80C00ADF810000C20ADF80E0001A9DE
:102310000C48FFF7FBF901A90A48FFF7F7F901227A
:1023200040F225510748FFF7CBF9002240F2244143
:102330000448FFF7C5F901210248FFF73CF906B050
:1023400010BD0000003801400008014010B5002910
:102350000AD00878002807D005487844FEF7C8F866
:10236000002801D0002010BD0248784410BD0000B4
:10237000620B00005A0B000021F00042A2F16052F3
:10238000B2F5801F01F0004328BFD2F17F6C0BD95A
:102390005FEA001C43EAC20242EB507018BF70476C
:1023A00028BF20F001007047B2F5801FBCBF18465F
:1023B00070474FEA410C1CF5001F02D2084600F09E
:1023C00068BD70B500F054FB00000089FFF7F6BF50
:1023D0004FF00040A0F580007047000010B591EA72
:1023E000030F48BF83F0004300F1E083841A71EBD0
:1023F000030C05D2121943EB0C03001B61EB0C011B
:10240000DFF824E14FEA1154A4EB135C1EEA430FFA
:1024100018BF9EEA445F73D023EA0E03DCF1200E5E
:1024200021EA045143F4801332D322FA0CFE10EB5C
:102430000E0023FA0CFE41EB0E01CCF1200E03FA44
:102440000EFE10EB0E0051F10001B1F5801FCCF132
:10245000200E32D201EB045112FA0EF2BDE8104008
:1024600058BF7047401C38BF5FEA420218BF704730
:10247000002814BF20F0010041F100014FEA4103A0
:1024800013F5001F38BF7047A1F1C04100F03EBBFB
:10249000012A43EB0302ACF1200CDCF11F0E32BF2A
:1024A0004FF0000E23FA0CF310EB030041EB045144
:1024B000B4EB115FD0D0A1EB045101F580114908B4
:1024C0005FEA300001EB04510ED350F1000038BF39
:1024D00012FA0EFE08D1BDE81040C9E7401C38BF13
:1024E0005FEA4202CAD1C3E7BDE810404FEA4103A8
:1024F00013F5001F38BF7047A1F1C04100F006BBC3
:102500009EEA445F08D011EA5E0FBDE8104004BFA8
:1025100001F0004100207047BDE8104070B500F0A8
:10252000A7FA00BF64FBBE3E0000E0FF491058BFA1
:10253000C1F140415B1058BFC3F140438B42EFF300
:10254000008070472DE9C04130B4DFF8A0C23CEAFA
:10255000111418BF3CEA131400F0EC8081EA030563
:102560001CEA111444EAD57418BF1CEA131500F0D4
:10257000C780A4EB05044FF0004545EAC12145EAB8
:10258000C32341EA505143EA525304F17F74994204
:1025900004F500344FEAC0204FEAC22208BF90423F
:1025A00000F09C804FEA13650FF24016765D4FEA0B
:1025B000134506FB05F7C7F1807706FB07F74FEADF
:1025C000D737A7FB03687642C8F58038A7FB06CE4D
:1025D00038BFA8F1010807FB08E64FF0000EA6FB84
:1025E000028CE6FB03CEDCF1000CCEF1004E38BFCE
:1025F000AEF1010EA6FB0C584FF000074FF000059E
:10260000E6FB0E87A1FB08C6A0FB07CE16EB0E0665
:1026100045F10005E1FB076515F1E04E7EBFA4F52D
:1026200080345FEA46066D4116F1800745F10005EA
:102630004FEA17274FEA066647EA0567A6F1DE4626
:10264000B6F1805F4FEA15251FD9384624F0010CFA
:1026500005EBC471BCF1FE6F01EB0C1102D8F0BCAC
:10266000BDE8008124425CBF01F5801E9EEAC47F64
:1026700002D4F0BCBDE80081244238D4F0BCA1F102
:10268000C041BDE8004100F041BA4FEAD22242EA1F
:1026900043524FEAD323A7FB02864FEAD02040EAF9
:1026A000415007FB03661EEA0E0F4FEAD12105FBDE
:1026B000026658BFA6EB0056B6EB00564FEA520E24
:1026C0004EEAC37E18EB0E0E56EB530EBDD518EB3B
:1026D00002085E417F1C55F10005B6E74FF48015F6
:1026E0004FF000074FF000064FF00008ADE7F0BCD8
:1026F0004FF0000001F1C04101F00041BDE8008150
:1027000011EA0C1F0CEA131500D00CE013EA0C1FA1
:1027100000F025804FF00000F0BC81EA030101F0D9
:102720000041BDE80081F0BCBDE8004181EA030141
:1027300000F0ECB9F0BCBDE8004170B500F098F9CC
:10274000097EFC3E00F007B881EA03014FF000006B
:1027500001F00041704781EA030100F0D7B9F0BCF5
:10276000BDE800414FF0000021497047FFFDFBF933
:10277000F7F5F4F2F0EEEDEBE9E8E6E4E3E1E0DEB4
:10278000DDDBDAD8D7D5D4D3D1D0CFCDCCCBCAC826
:10279000C7C6C5C4C2C1C0BFBEBDBCBBBAB9B8B74D
:1027A000B6B5B4B3B2B1B0AFAEADACABAAA9A8A840
:1027B000A7A6A5A4A3A3A2A1A09F9F9E9D9C9C9B0E
:1027C0009A999998979796959594939392919190B9
:1027D0008F8F8E8E8D8C8C8B8B8A8989888887874A
:1027E0008685858484838382828181800000FF07BF
:1027F0000000F87F4FEA1153A3F58063D3F11E0365
:10280000A8BFD3F1200C08DB4FF0004242EAC122FE
:1028100052EA505232FA03F0704709420BD4102B9F
:10282000C4BF0020704703F5787CBCF1FF3F05D0A2
:102830004FF0FF3070474FF00000704770B500F068
:1028400017F900BF4992248000207047F0E710F08C
:10285000004248BF4042B0FA80F310FA03F10AD0B8
:10286000C3F11D0303F580634FEA415002EB0352AD
:1028700002EBD12170474FF000007047B0FA80F3AF
:1028800010FA03F10AD0C3F11D0303F580634FEA88
:1028900041504FEA035202EBD12170474FF0000044
:1028A0007047000051EA030C17D41CF5801F58BF75
:1028B000BCF5801F00F10680994218BF704708BF21
:1028C0009042704707D711F5801F58BF13F5801F3E
:1028D00019D499427047894270471CF5801F08D56A
:1028E000BCF5801FF7D58B4218BF704708BF8242E6
:1028F00070474FF4001C1CEB410F38BF1CEB430F1B
:1029000001D28B42704770B500F0B2F892244900B2
:102910004FF000514FF08053FFF708BEDFF848C179
:1029200070B51CEA111E1EBF1CEA13159EEA0C0F9F
:1029300095EA0C0F00F06F8081EA030423EA4C1340
:102940004EEAD47E21EA4C1141F4801143F4801305
:10295000AE44A1FB024CA0FB0365AEF17F7E3619AD
:1029600055EB0C05A1FB034C4CF10003A0FB021C32
:1029700016EB0C06654153F10003094218BF46F0FF
:10298000010613F4007F0BD14FEA03314FEA053003
:10299000340341EA155140EA16506FF003020AE091
:1029A0004FEAC3214FEAC520F40241EA555140EAFB
:1029B00056506FF0020202EB2E4201EB025585EAFF
:1029C000CE710AD05FEA440C18BF24F0004450F1E5
:1029D000000041F1000120EAD47040F2FE7C624523
:1029E00000D270BDA84214BF4FF080444FF0404465
:1029F000002E08BF0024BEF1806FA8BFA1F1C04126
:102A0000BDE8704080F282804FF0000001F1C041CB
:102A100001F0004170479EEA0C0F0CEA131518BF35
:102A200095EA0C0F06D04FF0000081EA030E0EF07D
:102A3000004170BD00F01CF88900013E00F007B8AD
:102A400000F009B84FEA430C5FEA5C5C08D081EA09
:102A5000030100F05BB84FEA410C5FEA5C5CF6D121
:102A60004FF00000014970470000FF070000F87FA9
:102A70000EF1020E2EF0030E5EF8046B364205D402
:102A8000012A43EB030515F5001F12D8012841EB7D
:102A9000010C1CF5001F0CD80ED14FEAD17C15F5A6
:102AA000001F0CEB4C0C0CF1020C08BF4CEBD37C60
:102AB00004E04FF0080C01E04FEAD37C0CEB4C052E
:102AC00026FA05F606F00706B6F1040C06D20EEB60
:102AD000860CBDE870404CF0010C6047DFE80CF05C
:102AE000090B02024FF000414FF00000A1F5002158
:102AF00070BD19461046012851EB010418BFD4F5EA
:102B0000001484BF002001F0004170BD0808A0F54A
:102B100000114FEA3101704753EA010C17D41CF53C
:102B2000801F58BFBCF5801F00F106808B4218BF84
:102B3000704708BF8242704707D713F5801F58BF00
:102B400011F5801F19D48B4270479B4270471CF5CA
:102B5000801F08D5BCF5801FF7D5994218BF704774
:102B600008BF904270474FF4001C1CEB430F38BF66
:102B70001CEB410F01D2994270470FB40CBC03BC4F
:102B8000FFF7C1BE91EA030F10B581F000413FF598
:102B90002DAC83F0004300F009B8000010B591EAB5
:102BA000030F48BF83F000433FF520AC841A71EB5C
:102BB000030C07D212198CF0004C43EB0C03001BE2
:102BC00061EB0C01DFF8A4E14FEA1154A4EB135CB4
:102BD0001EEA430F18BF9EEA445F00F0B08023EA6C
:102BE0006E03524221EA0451C3EB6E0338BF5B1EF1
:102BF000DCF1200E25D322FA0CFE10EB0E0043FA76
:102C00000CFE41EB0E01CCF1200E03FA0EFE10EB90
:102C10000E0051F10001CCF1200E29D412FA0EF26F
:102C200001EB0451BDE8104058BF7047401C1CBF69
:102C3000B2F1004F704700280CBF491C20F0010082
:102C4000704712EB020E43EB030218BF4FF0010E68
:102C50004EEA4202ACF1200CDCF11E0E54D943FACC
:102C60000CFE10EB0E0051F1FF31CCF11E0ED5D54C
:102C70000EF1010E12FA0EFE404141EB010101EB93
:102C8000445C5FEA5C5C10D910EBDE7001EB045130
:102C900038BFBEF1004FBDE8104018BF7047002894
:102CA0000CBF491C20F00100704730D24FEAD42CF1
:102CB00011F5001124F400641BD0B1FA81F20B3A33
:102CC000A41AA41ED2F12003914030FA03F3194351
:102CD000904001EBCC71002C01EB0451BDE8104099
:102CE000A8BF704701F1C0414FF0000001F0004162
:102CF0007047B0FA80F310FA03F100D110BDE41A66
:102D0000173C4805C90AE4E701EB045110BD49101E
:102D100001EB0451BDE810404FEA300002E04FF0F3
:102D2000000170474A0008BF0042F8D0B2F5001F0A
:102D300028BF704701F000414FF0000070479EEA45
:102D4000445F07D011EA5E0FBDE8104004BF0021C8
:102D500000207047BDE8104070B5FFF789FE00BF46
:102D600040DFF63E83F00041104670470000E0FF70
:102D700043004FEAD30C4FEA3C0C43401FBF4007CF
:102D80000CF1605113F0FE4F70471CF0006F03D13F
:102D900000200CF0004170470CF0004343EA5070F3
:102DA00010B540EACC0000F02EF800BF0000009201
:102DB0004FEA0001FFF7AABE4FF000414FF00000BC
:102DC000A1F5002170470000C10DD1F19E0206DB84
:102DD0004FEA002343F0004323FA02F07047004219
:102DE00007D54FEA4001B1F1FE4F02D24FF000008B
:102DF000704710B500F007F8499224800020704712
:102E00006FEA200070470EF1020E2EF0030E5EF8FE
:102E1000044B244204D44FEA4102B2F17F4F11D84F
:102E20004FEA4003B3F17F4F0CD80ED14FEAD07C6C
:102E3000B2F17F4F0CEB4C0C0CF1020C08BF4CEBC9
:102E4000D17C04E04FF0080C01E04FEAD17C0CEBA0
:102E50004C0324FA03F404F00704B4F1040C06D282
:102E60000EEB840CBDE810404CF0010C6047DFE82D
:102E70000CF0070802024FF00040A0F5800010BDE2
:102E80000846420018BFD2F1807288BF00F00040AF
:102E900010BDFF2141EAD050C0057047CC2F00087B
:102EA0000000002064000000280100083030000805
:102EB00064000020440700004401000810010000E5
:102EC00043000000F8FFFFFF00404040404040400A
:102ED00040404141414141404040404040404040ED
:102EE0004040404040404040400502020202020291
:102EF00002020202020202020220202020202020E0
:102F000020202002020202020202909090909090F3
:102F100010101010101010101010101010101010B1
:102F20001010101002020202020288888888888825
:102F30000808080808080808080808080808080811
:102F40000808080802020202400000000000000019
:102F50000000000000000000000000000000000071
:102F60000000000000000000000000000000000061
:102F70000000000000000000000000000000000051
:102F80000000000000000000000000000000000041
:102F90000000000000000000000000000000000031
:102FA0000000000000000000000000000000000021
:102FB0000000000000000000000000000000000011
:102FC0000000000000000000000000000000000001
:102FD00001020304010203040607080902040608AB
:102FE00000000000002300000A00000014000000A0
:102FF0000000000000000000D007000000000000FA
:10300000010000000000000000A24A0400000000CF
:103010000000000001020304060708090000000088
:1030200000000000000000000000000000000000A0
:04000005080000ED02
:00000001FF
